:020000040000fa
:080000000002040000000000f2
:020000040000fa
:040008007003000081
:020000040000fa
:04000c00700300007d
:020000040000fa
:040010007003000079
:020000040000fa
:040014007003000075
:020000040000fa
:040018007003000071
:020000040000fa
:04001c00700300006d
:020000040000fa
:040020007003000069
:020000040000fa
:040024007003000065
:020000040000fa
:040028007003000061
:020000040000fa
:04002c00700300005d
:020000040000fa
:040030007003000059
:020000040000fa
:04003400fa020000cc
:020000040000fa
:040038007003000051
:020000040000fa
:04003c00700300004d
:020000040000fa
:040040007003000049
:020000040000fa
:040044007003000045
:020000040000fa
:040048001a03000097
:020000040000fa
:04004c00700300003d
:020000040000fa
:040050007003000039
:020000040000fa
:040054007003000035
:020000040000fa
:040058007003000031
:020000040000fa
:04005c004c03000051
:020000040000fa
:040060007003000029
:020000040000fa
:040064007003000025
:020000040000fa
:040068007003000021
:020000040000fa
:04006c00700300001d
:020000040000fa
:040070007003000019
:020000040000fa
:040074007003000015
:020000040000fa
:040078007003000011
:020000040000fa
:04007c00700300000d
:020000040000fa
:040080007003000009
:020000040000fa
:040084007003000005
:020000040000fa
:040088007003000001
:020000040000fa
:04008c0070030000fd
:020000040000fa
:0400900070030000f9
:020000040000fa
:040094002203000043
:020000040000fa
:0400980070030000f1
:020000040000fa
:04009c0070030000ed
:020000040000fa
:0400a00070030000e9
:020000040000fa
:0400a40070030000e5
:020000040000fa
:0400a80070030000e1
:020000040000fa
:0400ac0070030000dd
:020000040000fa
:0400b00070030000d9
:020000040000fa
:0400b40070030000d5
:020000040000fa
:0400b80070030000d1
:020000040000fa
:0400bc0070030000cd
:020000040000fa
:0400c00070030000c9
:020000040000fa
:0400c40070030000c5
:020000040000fa
:0400c80070030000c1
:020000040000fa
:0400cc0070030000bd
:020000040000fa
:0400d00070030000b9
:020000040000fa
:0400d40070030000b5
:020000040000fa
:0400d80070030000b1
:020000040000fa
:0400dc0070030000ad
:020000040000fa
:0400e00070030000a9
:020000040000fa
:0400e40070030000a5
:020000040000fa
:0400e80070030000a1
:020000040000fa
:0400ec00700300009d
:020000040000fa
:0400f0007003000099
:020000040000fa
:0400f4007003000095
:020000040000fa
:0400f8007003000091
:020000040000fa
:0400fc00700300008d
:020000040000fa
:040100007003000088
:020000040000fa
:040104007003000084
:020000040000fa
:040108007003000080
:020000040000fa
:04010c00700300007c
:020000040000fa
:040110007003000078
:020000040000fa
:040114007003000074
:020000040000fa
:040118007003000070
:020000040000fa
:04011c00700300006c
:020000040000fa
:040120007003000068
:020000040000fa
:040124007003000064
:020000040000fa
:040128007003000060
:020000040000fa
:04012c00700300005c
:020000040000fa
:040130007003000058
:020000040000fa
:040134007003000054
:020000040000fa
:040138007003000050
:020000040000fa
:04013c00700300004c
:020000040000fa
:040140007003000048
:020000040000fa
:040144007003000044
:020000040000fa
:040148007003000040
:020000040000fa
:04014c00700300003c
:020000040000fa
:040150007003000038
:020000040000fa
:040154007003000034
:020000040000fa
:040158007003000030
:020000040000fa
:04015c00700300002c
:020000040000fa
:040160007003000028
:020000040000fa
:040164007003000024
:020000040000fa
:040168007003000020
:020000040000fa
:04016c00700300001c
:020000040000fa
:040170007003000018
:020000040000fa
:040174007003000014
:020000040000fa
:040178007003000010
:020000040000fa
:04017c00700300000c
:020000040000fa
:040180007003000008
:020000040000fa
:040184007003000004
:020000040000fa
:040188007003000000
:020000040000fa
:04018c0070030000fc
:020000040000fa
:0401900070030000f8
:020000040000fa
:0401940070030000f4
:020000040000fa
:0401980070030000f0
:020000040000fa
:04019c0070030000ec
:020000040000fa
:0401a00070030000e8
:020000040000fa
:0401a40070030000e4
:020000040000fa
:0401a80070030000e0
:020000040000fa
:0401ac0070030000dc
:020000040000fa
:0401b00070030000d8
:020000040000fa
:0401b40070030000d4
:020000040000fa
:0401b80070030000d0
:020000040000fa
:0401bc0070030000cc
:020000040000fa
:0401c00070030000c8
:020000040000fa
:0401c40070030000c4
:020000040000fa
:0401c80070030000c0
:020000040000fa
:0401cc0070030000bc
:020000040000fa
:0401d00070030000b8
:020000040000fa
:0401d40070030000b4
:020000040000fa
:0401d80070030000b0
:020000040000fa
:0401dc0070030000ac
:020000040000fa
:0401e00070030000a8
:020000040000fa
:0401e40070030000a4
:020000040000fa
:0401e80070030000a0
:020000040000fa
:0401ec00700300009c
:020000040000fa
:0401f0007003000098
:020000040000fa
:0401f4007003000094
:020000040000fa
:0401f8007003000090
:020000040000fa
:0401fc00700300008c
:020000040000fa
:040200007003000087
:020000040000fa
:040204007003000083
:020000040000fa
:04020800700300007f
:020000040000fa
:04020c00700300007b
:020000040000fa
:040210007003000077
:020000040000fa
:040214007003000073
:020000040000fa
:04021800700300006f
:020000040000fa
:04021c00700300006b
:020000040000fa
:040220007003000067
:020000040000fa
:040224007003000063
:020000040000fa
:04022800700300005f
:020000040000fa
:04022c00700300005b
:020000040000fa
:040230007003000057
:020000040000fa
:040234007003000053
:020000040000fa
:04023800700300004f
:020000040000fa
:04023c00700300004b
:020000040000fa
:040240007003000047
:020000040000fa
:040244007003000043
:020000040000fa
:04024800700300003f
:020000040000fa
:04024c00700300003b
:020000040000fa
:040250007003000037
:020000040000fa
:040254007003000033
:020000040000fa
:04025800700300002f
:020000040000fa
:04025c00700300002b
:020000040000fa
:040260007003000027
:020000040000fa
:040264007003000023
:020000040000fa
:100400002f0721000eff2d000e01880000000000c4
:10041000000020000000e000020032000001200087
:100420002002880014000700af0007000000e00071
:1004300003003a00e08021000100200002003700a4
:100440000000200001002000810f70000100320038
:100450000f000700000020000000e0000200320052
:100460000000020000000000160e02000000000064
:100470000040da000000fe00200020000000e00044
:1004800002003200100020009001880000000600e9
:10049000a1028800800478000000eb001f003700f4
:1004a000e284440054a0b4009905ba00e2844400f8
:1004b00054a0b4009906ba00e284440054a0b400e9
:1004c0000006eb00476fde00fd07b200ae018800ba
:1004d000636ce10003003a000ad801000000eb0061
:1004e0000e003700606ce10008003a00004deb00a0
:1004f0000a05e800020039003420ec000af0a000f0
:100500008b05e900f9ff3e00040037006168e10057
:10051000010032000086eb000b00070019c7ba008b
:100520000e04e0001905ba0003003a000a00e000da
:10053000dbff3a0000000600fe07b200ae028800b2
:100540008a047800f5ff37000cd0a300e20f4d00bd
:100550001c003b0089027800354dba000a05e8000e
:10056000020039003420ec000af0a0008b05e900fd
:100570000f003200254dba000a05e80002003900dc
:100580003420ec000af0a0008b05e90008003200de
:100590000c00e0000600320015cdba000a05e800a4
:1005a000020039003420ec000af0a0008b05e900bd
:1005b0008984e80054a0b4000b00e000e2ff3a0098
:1005c000000006009902ba00055d78008b05e9007d
:1005d000f7ff3200c82ade00055d78008b05e900d0
:1005e000f3ff32000c00e000f1ff320019ddba0029
:1005f000eeff37003600f800809fbe00829fbe00ed
:10060000849fbe00869fbe000000fa004b0a0700d0
:10061000740607000068a9000080fa004f03be00be
:100620004f02be004f01be004f00be003600f90071
:10063000004006000000fa000108a9000080fa004e
:10064000004006003600f800809fbe00829fbe007a
:10065000849fbe00869fbe000000fa000368a900c8
:10066000508180006181800061004000e08048008e
:100670005081880061818800400407000080fa00f2
:100680004f03be004f02be004f01be004f00be0030
:100690003600f90000400600801f78000000fa00d4
:1006a00001a8a9000018800040838800101880006d
:1006b00050838800201880006083880030188000f4
:1006c00070838800401880008083880010c0b300c9
:1006d0002ff0b7000080fa004f00780000400600bd
:1006e0000040da000000fe000000050014002000b9
:1006f000aa033700f4ff2f00a80337000001be0053
:100700003c0007000470a70003f0a1006509b100d8
:10071000160032000d0035006828e10006003500a3
:10072000f0ff2f00f1ff27000300e00013003b0063
:100730000100280000000500000040008180480002
:100740008502e900fcff3a0008003700f88f4200fc
:1007500002003c008000eb00000005008100d10099
:100760000080d3008502e800fcff3a000300e000af
:1007700002003b0060001000e0801800000006004e
:100780000001be001b0007000470a70003f0a100d9
:1007900003f8a30013003a006509b100100032000d
:1007a000090035006928e100020035000100280039
:1007b0000000050000004000818048008502e9003b
:1007c000fcff3a0000000600f88f420005003500eb
:1007d0008100d1000080d3008502e800fcff3a00d0
:1007e000000006008000eb00000005006011b8006a
:1007f00085033700c70ade00f107b200f50fb2002b
:1008000008003200e1cf4200020032000170a00077
:1008100024000500810f700001003200040805006b
:1008200044000500810f700002003a00140005002a
:100830008502e9000000400081c04800fcff3b0049
:100840000170a0002400050007f82700078361005d
:100850000638e10004003a00f707200087836100b2
:100860008703710001003a0003f0a200889fbe00d8
:100870008a9fbe008c9fbe00470ade000480a10054
:10088000c71ade000580a100070028000785600068
:1008900087856100f70f20000720e1009e003200ed
:1008a0000728e1009c003200010678000400e00007
:1008b000b4003200f7072000878060000170a000bc
:1008c0000500e000c0003200f707200087816100ca
:1008d0000370a000050652000f003a000b50e10023
:1008e0000b0032000308e10002003a000200e100c0
:1008f0007e0032000204500083845800040031005e
:100900000001fd008101fd008402fd008a05fd005b
:100910006044b800210037000520e10005003d00db
:100920000001fd008101fd008402fd008a05fd003b
:10093000050652007a60e100050035000170a10053
:100940004722dd00848070008a80700063003700d9
:100950006044b800ef02660007ff2f00070666003c
:100960000500e00006003400f08312008714dd006b
:100970000511de00071bdd00060171008519de0090
:100980007060e100050035000904780082047800f9
:10099000030178008001eb00700656000b50e10067
:1009a00003003a0002004000838048000400370042
:1009b00060041400e0841c0002005800838058008a
:1009c0000188a300060032008100d1000080d3001e
:1009d0008984d3000884d3000402e800270037008c
:1009e0000178a30025003a000100e0000300320076
:1009f0008186cf00698656000a0037008c002000ef
:100a00000000e00004003a00090078008804780043
:100a10000004eb00700252008086cf000d064600f5
:100a20000c06e9007060e1000600350080007800e7
:100a300009007800880478000004eb007006560076
:100a4000700252000c00e0000c0034008c08dd0045
:100a5000f00316000703de00868070000c00dd0046
:100a6000074bde00060070008c4cdd000743de0003
:100a7000868474000c44dd000c0252006120e10009
:100a800020003500610160000700280087816400b4
:100a9000f7ff270087836400070374000300e0006a
:100aa0000600320082037300040032000000e800f8
:100ab000e08048000188a3000e003a00f70f2000f4
:100ac0000720e1004a003d000170a1004722dd003f
:100ad000810072008a8070000000be004f06be00d8
:100ae0004f05be004f04be00000006006000b800c5
:100af000faff37008100d1000080d3000402e80033
:100b0000eeff37000401780089017400a10107009d
:100b10008a807000f1ff3700f701070007027800b4
:100b20000001fd008101fd00f3010700870278004c
:100b3000850372000778a300040032000001fd0065
:100b40008101fd0006020700e4ff37008503620013
:100b50000768a300080032000b50e10003003200d8
:100b6000f0ff2f00f1ff2700dcff37000001fd0040
:100b70008101fd00d9ff37000468a300d7ff3200d0
:100b8000faff3700f8ff2700888360000b003a0067
:100b90000000e00009003a008303640082837300d0
:100ba000020032000200be00ccff37000b50e10013
:100bb000ceff3a000200be00c8ff3700140020003c
:100bc000810064003eff3700f8ff27008883610042
:100bd00004003a000200e00002003a008c007800b5
:100be000beff3700150020008301640039ff370085
:100bf00001f827000000200081007500b7ff3700d2
:100c0000889fbe008a9fbe008c9fbe001b002000f4
:100c10000202be000586680006002800060666007f
:100c20004709de00f20fb200820032000243e80002
:100c300080003200c729de00f30fb2007d003200d1
:100c40000343e8007b003200f107b2000170a0000e
:100c5000f507b2000570a000c708dd004903de00fb
:100c6000868070004700dd00c72add004923de00d2
:100c7000868272004722dd00030551000403500004
:100c80008583580003003100000040008180480047
:100c90000a05e9008c1f78008a9fbe0004005000fe
:100ca000858058000402420085824a00000040000e
:100cb000818048000005eb000004be006033b800ee
:100cc0000406be000d48e100560031001100090085
:100cd0004dccd8000c01b8000d02b8008481410051
:100ce00060824a008283530003045c0084845c00b9
:100cf00060055d000a00e00025003a0080057800ec
:100d00000d40e100490031008800780007007800bc
:100d1000110009004d88d8000c01b8000d02b80080
:100d20008481410060824a006003110083835b007c
:100d300004045c00e0845c000900e00021003a004b
:100d40004f01be000300e0002b003200e301600011
:100d5000070673008c81710001003200640070008e
:100d60004200de004e5edd000c007000c258de0066
:100d700001e0a00083010700cf01780081807100ad
:100d80004f06be004f05be004f04be000000060027
:100d90008c8343000d044c00e0844c0060054d0042
:100da0000000e9000a00e000d4ff32008c83430019
:100db0000d044c00e0844c0060054d000000e9008b
:100dc000ceff37000c0343008d834b0060044c00c2
:100dd000e0844c000000e9000900e000d8ff320088
:100de0000c0343008d834b0060044c00e0844c00f6
:100df0000000e900d2ff37004200de004e5edd0059
:100e00000c007000c258de0001e0a000cf017800a5
:100e10000300e000daff320060001000e0801800fc
:100e2000d7ff3700f0ff2f00aaff3700f0ff2f0099
:100e3000b9ff37000404be002f01070087067800c1
:100e40000004fd008104fd002b01070007836600fc
:100e50000678a300030032000960a7000800be0066
:100e60002c0037000d78a300020032000800be00fd
:100e7000280037000778a30026003a0001f0a100ff
:100e800009f0a1000668a30003003200f1ff27006b
:100e9000f0ff2f00baff37000d68a30003003200f7
:100ea0000800be008c807000b5ff37000768a30003
:100eb00007003a000648a30003003200f1ff2700b4
:100ec000f0ff2f00aeff37000d48a30003003200f3
:100ed0006000b8008c807000a9ff37000748a300ad
:100ee0000400320001f82700000020008c80700010
:100ef000a3ff3700760107000004fd008104fd0018
:100f000002057800720107000802be008a0178001d
:100f100059ff37000160a000120220008281880082
:100f200097ff37000100e000120032000500e000ea
:100f300010003200889fbe008a9fbe008c9fbe00ba
:100f40000006eb0001f8a30003003200600010006f
:100f5000e08018000cf0a00005f8a30003003200a8
:100f600060021200e0821a000cf0a2008005eb0083
:100f700041ff37006000b8000200050003836800ed
:100f80000700280007036300470ade000480a10071
:100f9000c71ade000580a100f70f20000720e1003e
:100fa000420032000728e10040003200889fbe0066
:100fb0008a9fbe008c1f7800f107b200f307b200d1
:100fc0000400e000640032000170a0000500e000b1
:100fd000680032000370a00085054200eb07b100f5
:100fe0000204b8000302b8008484440060854a000b
:100ff000020ab800848444000a854a00030ab80043
:1010000004054500040033000804d0008984d200a0
:101010000a85d2008b05e9006158e1003d003500ea
:10102000021020000901610003082000898161008d
:10103000f70720008783640008867300c84cde0031
:10104000c853dd00878474004855de000300e000cb
:101050000600320082037600040032008904e800b2
:1010600060054d000a88a3000c003a00f70f20002d
:101070000758e10044003d000a70a100c75ddd0093
:101080000a8575008a007300090078004f06780011
:101090004f05be004f04be00000006000a05d10047
:1010a0008984d3008b05e800f0ff3700881f7800a3
:1010b0000604780090000700070278000001fd0098
:1010c0008101fd008c000700870278008503720013
:1010d0000778a300050032000001fd008101fd003a
:1010e0009f0007004f04780000000600850372008f
:1010f0000748a30003003200f0ff2f00f1ff270094
:10110000f8ff37000000200001f8270088807000f9
:10111000f4ff3700880178004848dd0080817100c5
:101120004848de00c850dd0001007000c850de00f5
:10113000060478000b017800160007008880700014
:10114000d2ff37000500e000050032001700200044
:101150003a0007009dff370081037000f9ff3a0055
:10116000860078004f0678004f05be004f04be0091
:101170000000050083037100f9ff32002700200002
:101180002e00070094ff370001f8270086807000ca
:10119000f4ff37000100e000260032006101110079
:1011a0007810e10023003c006022b8007010e100dc
:1011b0000400350080027800010078008000eb0018
:1011c000700151000200e0000900340070031100ba
:1011d000062add00822ade008603dd008782720097
:1011e0000200de00860bdd00070070008208de00d2
:1011f00084817100f4ff2700048262008481710001
:1012000004002800848262006102600005f0a600ec
:101210000000060004827100070032000000e800b0
:10122000e0804800000006000002be006000b80038
:10123000efff37006000b80000000600889fbe0086
:101240000004eb006138e10016003a000100e00004
:1012500008003a00c800de004800dd0088002000d9
:101260000100e00003003a00c800de004800dd0095
:10127000680444008184cf00e984540006003400ef
:101280008908dd00f08314008703de00878070008a
:101290000900dd0009044400610214004f04be008f
:1012a000000006000300e00008003a00c811de005c
:1012b0004811dd00880020000300e00003003a0030
:1012c000c811de004811dd00680444008384cf00ab
:1012d000e9845400060034008919dd00f08314000d
:1012e0008713de00878171000911dd0009044400c5
:1012f000e1021400e9ff37002700200001f0a700f9
:1013000017002000470bde00f60fb2000400320089
:101310000643e8000a0032004702b300000006005e
:1013200001037800f607b2000603700002003a00dd
:101330000703b300000006008702b30000000600a8
:1013400001037800f607b2000603700002003200c5
:101350000770a000000006000760a0000000060063
:101360000478a300040032000578a30003003200d3
:101370000168a30001003a000200be000160a00065
:101380000000060081017000270032008002eb009f
:1013900001f8a3000300320060001000e080180094
:1013a00015002000f4072000020242002000340053
:1013b000f703200087036000060420000003630099
:1013c00002082000000161004700de00c909dd00bd
:1013d00000807100c708de000600e000080032004f
:1013e00087037100060032001000b0000180b000d9
:1013f0000188a30002003200c108de000402e800f8
:10140000f107b200f30f20000320e10003003d00cc
:101410004722dd00810072002900370001f8270013
:101420000000eb00260037006000b8000000060056
:10143000680212007f20e100020034006000b80062
:101440001f0037006011b8007020e1000400350073
:1014500080017800010078008000eb0070025200eb
:101460000400e00009003400f00312000719dd0059
:101470008419de000703dd00868171000400de00b0
:10148000070bdd00060070008408de00f7ff270070
:101490008383630087037100060028000303630051
:1014a000070032000700e00003003a00610160001d
:1014b00002817300020032001000b0000180b00011
:1014c0000500a6000000060001f0a00000000600d4
:1014d0004f0ade004709de00f107b200f20fb2004a
:1014e0000b003200f207b1000170a000c708dd0058
:1014f000c901de00838070004700dd000400a60003
:101500000000060060001000e080180000000600e7
:10151000810f700001003a00000006008182cf00b8
:101520000500e00010003e008082cf00ee82420005
:101530007028e1000400390007003e0080007800b8
:101540000000eb000e003700708312008600de0002
:101550000500dd000a003700708352008600dd00c0
:101560000000eb0006003700e28252008508dd0033
:10157000708312000603de00868070000500dd0027
:101580007507b0000501ea000400a600000006008f
:1015900060001000e080180000000600889fbe0078
:1015a0008a9fbe00841f78006c0007004f007800ff
:1015b00011003300f0ff2f00838f6c0006003b000a
:1015c000040565000a00a7000800370009f0a6001e
:1015d0001000200008003700820f5400838f5c0049
:1015e000030039001000200001003e000000200030
:1015f00009f0a7000000ea004f05be004f04be003e
:101600000000e00000000600889fbe008a9fbe0028
:101610000082700004027100048271002600320012
:101620000004be000200be006011b8006b0920007b
:10163000950220000182cf000a0039000541b10067
:101640000082cf00070039000541b1000982cf00b8
:10165000040039000541b1000882cf0001003900c3
:101660000541b10005425200120032000a003b0061
:1016700082817100610164008100d1000080d3008b
:101680008984d3000884d3008b05e8000442e80075
:10169000f7ff3a00070037000804440089844c0033
:1016a00000004800818048008b05e9000442e90001
:1016b000f9ff3a00030007004f05be004f04be00cb
:1016c0000000060081002000618055000b003d00f5
:1016d0000b00200061fe2f000100e1001d0034001e
:1016e00082817100610164008904d1000884d30003
:1016f0000000e800faff3a00710020006100640079
:101700000300700002006000090032006104440020
:10171000e0844c000988a500050032008b05e80034
:101720006808e10002003a008904d1000884d3006f
:10173000f20f20000258e10005003d00c75ddd000a
:10174000f907b200898075000800780000000600e3
:101750000bf827008b007800000005000004be0095
:1017600024fc07000003be000405be000200be000a
:0c17700020fc0700844f750000000600fc
:020000040000fa
:10177c000000fa001ed0bf000080fb00cf80de000e
:10178c003201200003002000820f5000838f58008c
:10179c0076003e0000060100130037001d003700e4
:1017ac002600370030003700310037003a00370090
:1017bc003b00370044003700450037004f0037002e
:1017cc006a0037006900370068003700670037008f
:1017dc0066003700650037004a00370054003700b8
:1017ec00550037005f0037002a30ef002c30ef0037
:1017fc006011b8000040eb00940307006011b800c2
:10180c0010c0b3009103070010c0b3001ef0b70066
:10181c005a0037005281800063818000803e200096
:10182c0001002000800f5100818f590052003600ba
:10183c0020c0b3001ef0b70050003700020020009b
:10184c00831c24000040eb008003070002002000f2
:10185c00831c240010c0b3007c03070030c0b3000d
:10186c001ef0b70045003700460007004300370064
:10187c0002002000031724000040eb007303070054
:10188c006011b80010c0b3007003070050c0b30063
:10189c001ef0b700390037003a0007003700370058
:1018ac006011b8000040eb00680307000200200044
:1018bc000317240010c0b3006403070070c0b3000a
:1018cc001ef0b7002d0037002e0007002b0037004c
:1018dc0002002000031724000040eb005b0307000c
:1018ec000200200003172c0010c0b30057030700a0
:1018fc0090c0b3001ef0b700200037002100070095
:10190c001e00370002002000031224000040eb00f0
:10191c004e03070002002000031f240010c0b30078
:10192c004a03070010c1b3001ef0b70013003700c4
:10193c00140007001100370002002000031f2400d0
:10194c000040eb00410307000200200003122400ba
:10195c0010c0b3003d03070030c1b3001ef0b70048
:10196c000600370007000700040037001e70ef0068
:10197c000000000001003700000000000080fa00a9
:10198c00000006000200fa00881f78000040eb00ff
:10199c00004f7800a0828000b182800018c0b30094
:1019ac0002002000031724004dfb07000000e0009c
:1019bc00010035000044eb000804e0000300320095
:1019cc0040c0b300004f78006600370020838000d1
:1019dc003183800018c0b3000200200003172400dc
:1019ec003ffb07000000e000010035000044eb0065
:1019fc000804e0000300320050c0b300004f780030
:101a0c0058003700008380001183800018c0b30099
:101a1c00020020000322240031fb07000000e0003c
:101a2c00010035000044eb000804e000190032000e
:101a3c00e0828000f182800018c0b3000200200018
:101a4c00031f240028fb07000000e00001003c00fd
:101a5c000044eb000804e0000e003200c08280005d
:101a6c00d182800018c0b3000200200003222400a1
:101a7c001dfb07000000e00001003c000044eb00ef
:101a8c000804e0000300320020c0b300004f7800cf
:101a9c0034003700008380001183800018c0b3002d
:101aac0002002000032224000ffb07000000e000ce
:101abc0001003c000044eb000804e0001900320077
:101acc00e0828000f182800018c0b3000200200088
:101adc00031f240004fb07000000e00001003c0091
:101aec000044eb000804e0000e003200c0828000cd
:101afc00d182800018c0b300020020000322240011
:101b0c00f7fa07000000e000010035000044eb008c
:101b1c000804e0000300320010c0b300004f78004e
:101b2c0010003700e0828000f182800018c0b30002
:101b3c000200200003222400e9fa07000000e00064
:101b4c00010035000044eb000804e0000300320003
:101b5c0030c0b300004f7800020037000040eb00ab
:101b6c00004f78001e4078000004e00003003a00ab
:101b7c0020c0b3001ff0b7001d0037001e407800d6
:101b8c00e24f500003003a0040c0b3001ff0b70012
:101b9c00170037001e407800e14f500003003a0058
:101bac0060c0b3001ff0b700110037001e40780072
:101bbc00e34f500003003a0080c0b3001ff0b700a1
:101bcc000b0037001e407800e44f500003003a0031
:101bdc0000c1b3001ff0b700050037001e407800ad
:101bec00e54f500002003a0020c1b3001ff0b700cf
:101bfc001fd0bf008080fb001ed0bf000080fb0008
:101c0c000000e900808f5000020032001fd0bf009e
:101c1c001ef0b7004f0478000080fa0000000600a8
:101c2c000600fa00881f78003c040700d004070067
:101c3c00cf00070084040700a502070099020700e3
:101c4c00a4030700854ea800e3000700848ea800bb
:101c5c00856ea800754ea800040ea800052ea800dd
:101c6c0095eea800054ea800746ea8001e70ef003b
:101c7c000100370000000000b5040700e14f5000e0
:101c8c00fcff3a00b6040700ad040700000f780013
:101c9c001e007800100078008000eb00d0fa0700de
:101cac003233230033052400b1fc0700020020006e
:101cbc0003582400cffb0700100798002107980059
:101ccc001e019000ae019000000020008120240035
:101cdc00c8fb070002002000030a2400d7fa070003
:101cec00a0828800b18288001e80e8001000780075
:101cfc008000eb00bafa07003233230033052400ce
:101d0c009bfc07000200200003582400b9fb0700cd
:101d1c0010079800210798001e019000ae0190005a
:101d2c000000200081202400b2fb070002002000ec
:101d3c00030a2400c1fa0700c0828800d1828800ff
:101d4c009e00780064804000100078008000eb005a
:101d5c00a3fa0700323323003305240084fc070068
:101d6c000200200003582400a2fb07001007980073
:101d7c00210798001e019000ae0190000000200089
:101d8c00812024009bfb070002002000030a240092
:101d9c00aafa0700e0828800f18288009e00780091
:101dac0066804000100078008000eb008cfa070081
:101dbc0032332300330524006dfc070002002000a1
:101dcc00035824008bfb070010079800210798008c
:101ddc001e019000ae019000000020008120240024
:101dec0084fb070002002000030a240093fa07007a
:101dfc0000838800118388009e0078006880400072
:101e0c00100078008000eb0075fa070032332300d5
:101e1c003305240056fc0700020020000358240060
:101e2c0074fb070010079800210798001e01900012
:101e3c00ae01900000002000812024006dfb070003
:101e4c0002002000030a24007cfa0700208388008b
:101e5c0031838800008380001183800018c0b30098
:101e6c0002002000031f24001ffa07000000e000fe
:101e7c0001003c000044eb000804e00002003200ca
:101e8c00856ea90001003700856ea800e0828000f5
:101e9c00f182800018c0b30002002000031f240050
:101eac0011fa07000000e00001003c000044eb00c8
:101ebc000804e00002003200848ea9000100370003
:101ecc00848ea800c0828000d182800018c0b3002c
:101edc0002002000031f240003fa07000000e000aa
:101eec0001003c000044eb000804e000020032005a
:101efc0084aea9000100370084aea800a082800047
:101f0c00b182800018c0b30002002000031f24001f
:101f1c00f5f907000000e00001003c000044eb0074
:101f2c000804e0000200320084cea9000100370052
:101f3c0084cea800208380003183800018c0b300b9
:101f4c0002002000031f2400e7f907000000e00056
:101f5c0001003c000044eb000804e00002003200e9
:101f6c00754ea90044ff3700754ea80042ff37009c
:101f7c000000fa001160800080ff2f0000806000dc
:101f8c00106088000096200020608800116180009d
:101f9c0000c02000010070001061880023cca80054
:101fac0023eca80030002000206188001162800022
:101fbc0000c02000010070001062880043cca80013
:101fcc0043eca800300020002062880001eca8003f
:101fdc000080fa00000006000000fa00889fbe0096
:101fec00c4818000d5818000a0818000b1818000f7
:101ffc0018c0b3000001be000400be00b8f9070011
:10200c000000e000010035000044eb000804e00093
:10201c000d003200a8818000b9818000c48180004d
:10202c00d581800020818000318180000001be00bc
:10203c000400be000afa07000801be00de02070019
:10204c00c0818800d1818800c4818000d581800046
:10205c00a0818000b181800018c0b3000001be00d7
:10206c000400be00a0f907000000e00001003c00e5
:10207c000044eb000804e0000d003200a881800051
:10208c00b9818000c4818000d581800020818000ce
:10209c00318180000001be000400be00e7f907009a
:1020ac000801be00ac020700c0818800d181880005
:1020bc00c0818000d181800018c0b3006011b800cd
:1020cc0089f907000000e00001003c000044eb002f
:1020dc000804e00014003200c0818000d18180002f
:1020ec0002002000031c2400a1fb07000002be001c
:1020fc0000818000118180000001be000400be0040
:10210c00d7f907009bf907000000780030618800c0
:10211c00008180001181800096f907000000780092
:10212c0070618800140037000081800011818000ec
:10213c0090f907000000780030618800c0818000b1
:10214c00d181800001f0a20002002000031c2400b9
:10215c0087fb07000002be00008180001181800017
:10216c000001be000400be00bdf9070081f90700a4
:10217c000000780070618800048280001582800065
:10218c00e0818000f181800018c0b3000001be0026
:10219c000400be0052f907000000e0000100350009
:1021ac000044eb000804e0000d003200e8818000e0
:1021bc00f9818000048280001582800020818000db
:1021cc00318180000001be000400be00a4f90700ac
:1021dc000801be0078020700008288001182880086
:1021ec000482800015828000e0818000f1818000f3
:1021fc0018c0b3000001be000400be003af907008d
:10220c000000e00001003c000044eb000804e0008a
:10221c000d003200e8818000f9818000048280008a
:10222c001582800020818000318180000001be0079
:10223c000400be0081f907000801be004602070039
:10224c000082880011828800008280001182800048
:10225c0018c0b3006011b80023f907000000e000bb
:10226c0001003c000044eb000804e00014003200c4
:10227c00008280001182800002002000031c2400d8
:10228c003bfb07000002be00008180001181800032
:10229c000001be000400be0071f9070035f907000b
:1022ac00000078003061880000818000118180007e
:1022bc0030f90700000078007061880014003700c6
:1022cc0000818000118180002af90700000078004d
:1022dc0030618800008280001182800001f0a20031
:1022ec0002002000031c240021fb07000002be009a
:1022fc0000818000118180000001be000400be003e
:10230c0057f907001bf9070000007800706188007e
:10231c0044828000558280002082800031828000bf
:10232c0018c0b3000001be000400be00ecf80700aa
:10233c000000e000010035000044eb000804e00060
:10234c000d00320028828000398280004482800097
:10235c005582800020818000318180000001be0008
:10236c000400be003ef907000801be00120207007f
:10237c00408288005182880044828000558280000f
:10238c00208280003182800018c0b3000001be00a2
:10239c000400be00d4f807000000e00001003c007f
:1023ac000044eb000804e0000d003200288280009d
:1023bc003982800044828000558280002081800018
:1023cc00318180000001be000400be001bf9070033
:1023dc000801be00e001070040828800518288009d
:1023ec00408280005182800018c0b3006011b80098
:1023fc00bdf807000000e00001003d000044eb00c8
:10240c000804e000140032004082800051828000f9
:10241c0002002000031c2400d5fa07000002be00b5
:10242c0000818000118180000001be000400be000c
:10243c000bf90700cff80700000078003062880025
:10244c000081800011818000caf80700000078002c
:10245c0070628800140037000081800011818000b8
:10246c00c4f80700000078003062880040828000c9
:10247c005182800001f0a20002002000031c240005
:10248c00bbfa07000002be000081800011818000b1
:10249c000001be000400be00f1f80700b5f807000b
:1024ac000000780070628800848280009582800031
:1024bc00608280007182800018c0b3000001be00f1
:1024cc000400be0086f807000000e00001003500a3
:1024dc000044eb000804e0000d003200688280002c
:1024ec007982800084828000958280002081800027
:1024fc00318180000001be000400be00d8f8070046
:10250c000801be00ac01070080828800918288001f
:10251c0084828000958280006082800071828000bd
:10252c0018c0b3000001be000400be006ef8070026
:10253c000000e00001003c000044eb000804e00057
:10254c000d003200688280007982800084828000d5
:10255c009582800020818000318180000001be00c6
:10256c000400be00b5f807000801be007a010700a0
:10257c008082880091828800808280009182800015
:10258c0018c0b3006011b80057f807000000e00055
:10259c0001003d000044eb000804e0001400320090
:1025ac00808280009182800002002000031c2400a5
:1025bc006ffa07000002be000081800011818000cc
:1025cc000001be000400be00a5f8070069f8070072
:1025dc00000078003062880000818000118180004a
:1025ec0064f807000000780070628800140037005f
:1025fc0000818000118180005ef8070000007800e7
:10260c0030628800808280009182800001f0a200fc
:10261c0002002000031c240055fa07000002be0033
:10262c0000818000118180000001be000400be000a
:10263c008bf807004ff807000000780070628800e4
:10264c004f04be000080fa00000006000600fa00ed
:10265c00004f780012079800230798001e4078005e
:10266c00e14f500005003a001e019000ae019000b1
:10267c00e2818800f3818800080037001e40780052
:10268c000004e00005003a001e009000ae0090002f
:10269c0001f0a20020828800318288000080fa00bc
:1026ac00000006000000fa0005e1a9000421a900c1
:1026bc0000002000812424001e0007000068a900ef
:1026cc002068a80005e1a8000080fa0000000600c0
:1026dc000000fa0013e1a90011e1a9001061a800a3
:1026ec001021a90081088000f0fc2f000080600000
:1026fc00800888000a21ef000621ef00707220008c
:10270c007008880000e020006008880021428000ea
:10271c0080ff2f00008060000000a0002042880095
:10272c000108a9002108a80011e1a8000080fa0006
:10273c00000006000400fa00881f7800008fbe001d
:10274c0021088000f0fc2f00008060002008880029
:10275c001e0178009e019000001c2e0041c6240032
:10276c0024f9070018c0b30002f02f00f3772400ff
:10277c00ddf707000000e00001003c000044eb0026
:10278c000804e0005400320021088000f0fc2f0007
:10279c00008060000040a000200888001e01780026
:1027ac009e019000001c2e0041c6240011f9070068
:1027bc0002002000031024000ef9070018c0b3001b
:1027cc0002f02f00f3772400c7f707000000e000a9
:1027dc0001003c000044eb000804e0003200320031
:1027ec0021088000f0fc2f00008060000050a00049
:1027fc00200888001e0178009e019000001c2e000d
:10280c0041c62400fbf80700020020000328240026
:10281c00f8f8070018c0b30002f02f00f37724007b
:10282c00b1f707000000e00001003c000044eb00a1
:10283c000804e00010003200210880000003200092
:10284c0001007000200888001e0178009e01900095
:10285c00001c2e0041c62400e6f8070002002000f0
:10286c0003382400e3f80700a1f707000000780004
:10287c0010088800200037001e0178009e0190008f
:10288c00001c2e0041c62400daf8070002002000cc
:10289c0003282400d7f8070095f7070000007800fc
:1028ac0010088800140037001e0178009e0190006b
:1028bc00001c2e0041c62400cef8070002002000a8
:1028cc0003102400cbf8070089f7070000007800fc
:1028dc0010088800080037001e0178009e01900047
:1028ec00001c2e0041c62400c2f8070080f7070028
:1028fc0000007800100888004f0478000080fa006f
:10290c00000006000400fa00881f7800008fbe004b
:10291c00f1088000f0fc2f0000806000f0088800b7
:10292c001e0178009e019000001c2e0041c6240060
:10293c00b0f8070018c0b30002f02f00f3772400a2
:10294c0069f707000000e00001003c000044eb00c8
:10295c000804e00054003200f1088000f0fc2f0065
:10296c00008060000040a000f00888001e01780084
:10297c009e019000001c2e0041c624009df807000b
:10298c0002002000031024009af8070018c0b300be
:10299c0002f02f00f377240053f707000000e0004b
:1029ac0001003c000044eb000804e000320032005f
:1029bc00f1088000f0fc2f00008060000050a000a7
:1029cc00f00888001e0178009e019000001c2e006b
:1029dc0041c6240087f807000200200003282400c9
:1029ec0084f8070018c0b30002f02f00f37724001e
:1029fc003df707000000e00001003c000044eb0044
:102a0c000804e00010003200f108800000032000f0
:102a1c0001007000f00888001e0178009e019000f3
:102a2c00001c2e0041c6240072f807000200200092
:102a3c00033824006ff807002df70700000078001a
:102a4c00d0088800200037001e0178009e019000fd
:102a5c00001c2e0041c6240066f80700020020006e
:102a6c000328240063f8070021f707000000780012
:102a7c00d0088800140037001e0178009e019000d9
:102a8c00001c2e0041c624005af80700020020004a
:102a9c000310240057f8070015f707000000780012
:102aac00d0088800080037001e0178009e019000b5
:102abc00001c2e0041c624004ef807000cf707003e
:102acc0000007800d00888004f0478000080fa00dd
:102adc00000006000000fa001fe1a9001e21a90059
:102aec0000002000a147240086ff07000368a9000e
:102afc002368a8001fe1a8000080fa00000006006f
:102b0c000400fa00881f7800008fbe0018c0b300c4
:102b1c006011b8001e0078009e009000f2f60700cd
:102b2c000000e00001003d000044eb000804e00060
:102b3c00030032001e0078009e0090000300370056
:102b4c001e0078009e00900001f0a2004f04780057
:102b5c000080fa00000006000800fa00881f7800c8
:102b6c00008fbe00220798003307980018c0b300ee
:102b7c002e019000be0190001e0078009e00900077
:102b8c00d9f607000000e00001003c000044eb0017
:102b9c000804e000030032001e0078009e00900044
:102bac00020037002e009000be0090004f04780009
:102bbc000080fa00000006000800fa00881f780068
:102bcc00008fbe00220798003307980018c0b3008e
:102bdc002e019000be0190001e0078009e00900017
:102bec00bff607000000e000010035000044eb00d8
:102bfc000804e000030032001e0078009e009000e4
:102c0c00020037002e009000be0090004f047800a8
:102c1c000080fa00000006000c00fa00881f780003
:102c2c00008fbe00220798003307980044079800d5
:102c3c005507980018c0b3004e019000de019000bb
:102c4c001e0078009e009000a7f607000000e00030
:102c5c0001003c000044eb000804e00004003200da
:102c6c004e019000de019000028fbe000e00370076
:102c7c0018c0b3002e019000be0190001e00780019
:102c8c009e00900096f607000000e0000100350061
:102c9c000044eb000804e000030032002e01900019
:102cac00be019000028fbe001e0078009e009000b6
:102cbc004f0478000080fa00000006000400fa00bf
:102ccc00008fbe00b2fd2000930424001e0078008b
:102cdc009e009000c7f70700020020004333240039
:102cec00a3f807000080fa00000006000400fa00b8
:102cfc00008fbe00b2fd2000930424001e0078005b
:102d0c009e0090009af80700020020004333240034
:102d1c00b8f707000080fa00000006000000fa0077
:102d2c00413a800000fc2f00008060007001b3006d
:102d3c00403a8800313a800000e02f00808060002b
:102d4c008005200001007000303a8800213a800094
:102d5c00f0f32f0000806000203a8800213a8000b8
:102d6c0000fe2f00008060000000a000203a8800c8
:102d7c001200200080072000a109200033742000dd
:102d8c00804978008149780082497800103a8000a7
:102d9c00000178000200a0006004200071052000f2
:102dac00237420008049780081497800824978009a
:102dbc0000000000113a80000000270080806000b5
:102dcc0000002100808f5000faff3a005927a8001c
:102ddc00c13a800080ff2f00008060000000a0003e
:102dec00c03a8800d03a80007000b300d03a880016
:102dfc00c13a8000f0f12f0080806000000c2000b0
:102e0c0001007000c03a880059a7a80059e7a80033
:102e1c0000000000c13a8000000024000080600027
:102e2c000000e000fbff320000000000113a8000bf
:102e3c0000022000008060000000e000fbff320078
:102e4c000080fa00000006000000fa0021e3a9004f
:102e5c002143a80001198000f0cf2f0000806000f2
:102e6c00001988002043a90001198000000e2000e1
:102e7c00010070000019880011198000f0ff21007a
:102e8c0000806000101988002343a80011198000ed
:102e9c00f0cf2f00008060001019880011198000fd
:102eac0030f82f00008060000040a000101988004e
:102ebc002203a9002223a90025e3a900f0c0b30036
:102ecc0024e3b70021198000f00f2e0080806000f1
:102edc0000f0200001007000201988003303a900c5
:102eec001e0ea8001f0ea8001f2ea8001f4ea80023
:102efc001f6ea8003003a8003103a8003123a800de
:102f0c003143a8003163a8004119800000fe2f0056
:102f1c00008060004019880028e3a90001a8a900de
:102f2c0021a8a80021e3a8000080fa0000000600f8
:102f3c000000fa002023a8000080fa000000060020
:102f4c000000fa00800621000080fa000000060054
:102f5c000000fa002fd0bf000080fa00000006002d
:102f6c000000fa002f70ef000080fa00000006004d
:102f7c000000fa000e2eef001e2eef003e2eef008a
:102f8c002e2eef004e2eef006e2eef0080cea900fd
:102f9c0080aea900808ea900816ea900714ea90097
:102fac00000ea900012ea90091eea900014ea90066
:102fbc00706ea900814ea9000c00070002000700ea
:102fcc000080fa00000006000000fa0021742000c6
:102fdc006204200073052000824878008348780042
:102fec0042c7a8000080fa00000006000000fa00aa
:102ffc0021742000620420007305200082487800b0
:10300c008348780042c7a9000080fa00000006003f
:020000040000fa
:10301c0000100000200000008000000028100000bc
:10302c000600000080000000321000003600000096
:10303c00800000002010000008000000820000004a
:10304c000000200041000000a040000068100000bb
:10305c000a000000800000002e100000020000009a
:10306c008000000030100000020000008000000012
:04307c000000000050
:020000040000fa
:0200000401f009
:04000800cfffff0027
:020000040000fa
:0200000401f009
:04000c00f9ffff00f9
:020000040000fa
:0200000401f009
:040010005bffff0093
:020000040000fa
:0200000401f009
:040014007fffff006b
:020000040000fa
:0200000401f009
:04001800cfffff0017
:020000040000fa
:0200000401f009
:04001c00deffff0004
:020000040000fa
:0200000401f009
:04002000cfffff000f
:00000001FF
